{
  "contractName": "DStorage",
  "abi": [
    {
      "inputs": [],
      "payable": false,
      "stateMutability": "nonpayable",
      "type": "constructor"
    },
    {
      "anonymous": false,
      "inputs": [
        {
          "indexed": false,
          "internalType": "uint256",
          "name": "fileId",
          "type": "uint256"
        },
        {
          "indexed": false,
          "internalType": "string",
          "name": "fileHash",
          "type": "string"
        },
        {
          "indexed": false,
          "internalType": "uint256",
          "name": "fileSize",
          "type": "uint256"
        },
        {
          "indexed": false,
          "internalType": "string",
          "name": "fileType",
          "type": "string"
        },
        {
          "indexed": false,
          "internalType": "string",
          "name": "fileName",
          "type": "string"
        },
        {
          "indexed": false,
          "internalType": "uint256",
          "name": "fileDescription",
          "type": "uint256"
        },
        {
          "indexed": false,
          "internalType": "uint256",
          "name": "uploadTime",
          "type": "uint256"
        },
        {
          "indexed": false,
          "internalType": "uint256",
          "name": "voted",
          "type": "uint256"
        },
        {
          "indexed": false,
          "internalType": "address payable",
          "name": "uploader",
          "type": "address"
        }
      ],
      "name": "FileUploaded",
      "type": "event"
    },
    {
      "anonymous": false,
      "inputs": [
        {
          "indexed": false,
          "internalType": "address",
          "name": "from",
          "type": "address"
        }
      ],
      "name": "Sent",
      "type": "event"
    },
    {
      "constant": true,
      "inputs": [
        {
          "internalType": "address",
          "name": "",
          "type": "address"
        }
      ],
      "name": "all",
      "outputs": [
        {
          "internalType": "uint256",
          "name": "",
          "type": "uint256"
        }
      ],
      "payable": false,
      "stateMutability": "view",
      "type": "function"
    },
    {
      "constant": true,
      "inputs": [
        {
          "internalType": "address",
          "name": "",
          "type": "address"
        }
      ],
      "name": "alli",
      "outputs": [
        {
          "internalType": "uint256",
          "name": "",
          "type": "uint256"
        }
      ],
      "payable": false,
      "stateMutability": "view",
      "type": "function"
    },
    {
      "constant": true,
      "inputs": [
        {
          "internalType": "address",
          "name": "",
          "type": "address"
        }
      ],
      "name": "balances",
      "outputs": [
        {
          "internalType": "uint256",
          "name": "",
          "type": "uint256"
        }
      ],
      "payable": false,
      "stateMutability": "view",
      "type": "function"
    },
    {
      "constant": true,
      "inputs": [],
      "name": "fileCoun",
      "outputs": [
        {
          "internalType": "uint256",
          "name": "",
          "type": "uint256"
        }
      ],
      "payable": false,
      "stateMutability": "view",
      "type": "function"
    },
    {
      "constant": true,
      "inputs": [],
      "name": "fileCount",
      "outputs": [
        {
          "internalType": "uint256",
          "name": "",
          "type": "uint256"
        }
      ],
      "payable": false,
      "stateMutability": "view",
      "type": "function"
    },
    {
      "constant": true,
      "inputs": [
        {
          "internalType": "uint256",
          "name": "",
          "type": "uint256"
        }
      ],
      "name": "files",
      "outputs": [
        {
          "internalType": "uint256",
          "name": "fileId",
          "type": "uint256"
        },
        {
          "internalType": "string",
          "name": "fileHash",
          "type": "string"
        },
        {
          "internalType": "uint256",
          "name": "fileSize",
          "type": "uint256"
        },
        {
          "internalType": "string",
          "name": "fileType",
          "type": "string"
        },
        {
          "internalType": "string",
          "name": "fileName",
          "type": "string"
        },
        {
          "internalType": "uint256",
          "name": "fileDescription",
          "type": "uint256"
        },
        {
          "internalType": "uint256",
          "name": "uploadTime",
          "type": "uint256"
        },
        {
          "internalType": "bool",
          "name": "t",
          "type": "bool"
        },
        {
          "internalType": "uint256",
          "name": "voted",
          "type": "uint256"
        },
        {
          "internalType": "bool",
          "name": "vote",
          "type": "bool"
        },
        {
          "internalType": "address payable",
          "name": "uploader",
          "type": "address"
        }
      ],
      "payable": false,
      "stateMutability": "view",
      "type": "function"
    },
    {
      "constant": true,
      "inputs": [
        {
          "internalType": "address",
          "name": "",
          "type": "address"
        }
      ],
      "name": "filess",
      "outputs": [
        {
          "internalType": "uint256",
          "name": "fileId",
          "type": "uint256"
        },
        {
          "internalType": "string",
          "name": "fileHash",
          "type": "string"
        },
        {
          "internalType": "uint256",
          "name": "fileSize",
          "type": "uint256"
        },
        {
          "internalType": "string",
          "name": "fileType",
          "type": "string"
        },
        {
          "internalType": "string",
          "name": "fileName",
          "type": "string"
        },
        {
          "internalType": "uint256",
          "name": "fileDescription",
          "type": "uint256"
        },
        {
          "internalType": "uint256",
          "name": "uploadTime",
          "type": "uint256"
        },
        {
          "internalType": "bool",
          "name": "t",
          "type": "bool"
        },
        {
          "internalType": "uint256",
          "name": "voted",
          "type": "uint256"
        },
        {
          "internalType": "bool",
          "name": "vote",
          "type": "bool"
        },
        {
          "internalType": "address payable",
          "name": "uploader",
          "type": "address"
        }
      ],
      "payable": false,
      "stateMutability": "view",
      "type": "function"
    },
    {
      "constant": true,
      "inputs": [
        {
          "internalType": "address",
          "name": "",
          "type": "address"
        }
      ],
      "name": "fun",
      "outputs": [
        {
          "internalType": "uint256",
          "name": "",
          "type": "uint256"
        }
      ],
      "payable": false,
      "stateMutability": "view",
      "type": "function"
    },
    {
      "constant": true,
      "inputs": [
        {
          "internalType": "address",
          "name": "",
          "type": "address"
        }
      ],
      "name": "funi",
      "outputs": [
        {
          "internalType": "uint256",
          "name": "",
          "type": "uint256"
        }
      ],
      "payable": false,
      "stateMutability": "view",
      "type": "function"
    },
    {
      "constant": true,
      "inputs": [
        {
          "internalType": "uint256",
          "name": "",
          "type": "uint256"
        }
      ],
      "name": "hashArray",
      "outputs": [
        {
          "internalType": "string",
          "name": "",
          "type": "string"
        }
      ],
      "payable": false,
      "stateMutability": "view",
      "type": "function"
    },
    {
      "constant": true,
      "inputs": [
        {
          "internalType": "address",
          "name": "",
          "type": "address"
        }
      ],
      "name": "highrisk",
      "outputs": [
        {
          "internalType": "uint256",
          "name": "",
          "type": "uint256"
        }
      ],
      "payable": false,
      "stateMutability": "view",
      "type": "function"
    },
    {
      "constant": true,
      "inputs": [
        {
          "internalType": "address",
          "name": "",
          "type": "address"
        }
      ],
      "name": "lowrisk",
      "outputs": [
        {
          "internalType": "uint256",
          "name": "",
          "type": "uint256"
        }
      ],
      "payable": false,
      "stateMutability": "view",
      "type": "function"
    },
    {
      "constant": true,
      "inputs": [
        {
          "internalType": "address",
          "name": "",
          "type": "address"
        }
      ],
      "name": "mediumrisk",
      "outputs": [
        {
          "internalType": "uint256",
          "name": "",
          "type": "uint256"
        }
      ],
      "payable": false,
      "stateMutability": "view",
      "type": "function"
    },
    {
      "constant": true,
      "inputs": [],
      "name": "name",
      "outputs": [
        {
          "internalType": "string",
          "name": "",
          "type": "string"
        }
      ],
      "payable": false,
      "stateMutability": "view",
      "type": "function"
    },
    {
      "constant": true,
      "inputs": [
        {
          "internalType": "address",
          "name": "",
          "type": "address"
        }
      ],
      "name": "name1",
      "outputs": [
        {
          "internalType": "string",
          "name": "",
          "type": "string"
        }
      ],
      "payable": false,
      "stateMutability": "view",
      "type": "function"
    },
    {
      "constant": true,
      "inputs": [
        {
          "internalType": "address",
          "name": "",
          "type": "address"
        }
      ],
      "name": "name1i",
      "outputs": [
        {
          "internalType": "string",
          "name": "",
          "type": "string"
        }
      ],
      "payable": false,
      "stateMutability": "view",
      "type": "function"
    },
    {
      "constant": true,
      "inputs": [
        {
          "internalType": "address",
          "name": "",
          "type": "address"
        }
      ],
      "name": "occ",
      "outputs": [
        {
          "internalType": "uint256",
          "name": "",
          "type": "uint256"
        }
      ],
      "payable": false,
      "stateMutability": "view",
      "type": "function"
    },
    {
      "constant": true,
      "inputs": [
        {
          "internalType": "address",
          "name": "",
          "type": "address"
        }
      ],
      "name": "occi",
      "outputs": [
        {
          "internalType": "uint256",
          "name": "",
          "type": "uint256"
        }
      ],
      "payable": false,
      "stateMutability": "view",
      "type": "function"
    },
    {
      "constant": true,
      "inputs": [
        {
          "internalType": "address",
          "name": "",
          "type": "address"
        }
      ],
      "name": "password",
      "outputs": [
        {
          "internalType": "uint256",
          "name": "",
          "type": "uint256"
        }
      ],
      "payable": false,
      "stateMutability": "view",
      "type": "function"
    },
    {
      "constant": true,
      "inputs": [
        {
          "internalType": "address",
          "name": "",
          "type": "address"
        }
      ],
      "name": "passwordi",
      "outputs": [
        {
          "internalType": "uint256",
          "name": "",
          "type": "uint256"
        }
      ],
      "payable": false,
      "stateMutability": "view",
      "type": "function"
    },
    {
      "constant": true,
      "inputs": [],
      "name": "psw",
      "outputs": [
        {
          "internalType": "uint256",
          "name": "",
          "type": "uint256"
        }
      ],
      "payable": false,
      "stateMutability": "view",
      "type": "function"
    },
    {
      "constant": true,
      "inputs": [
        {
          "internalType": "uint256",
          "name": "",
          "type": "uint256"
        }
      ],
      "name": "votingsss",
      "outputs": [
        {
          "internalType": "bool",
          "name": "",
          "type": "bool"
        }
      ],
      "payable": false,
      "stateMutability": "view",
      "type": "function"
    },
    {
      "constant": false,
      "inputs": [
        {
          "internalType": "uint256",
          "name": "pass",
          "type": "uint256"
        },
        {
          "internalType": "string",
          "name": "_nam",
          "type": "string"
        }
      ],
      "name": "login",
      "outputs": [],
      "payable": false,
      "stateMutability": "nonpayable",
      "type": "function"
    },
    {
      "constant": false,
      "inputs": [
        {
          "internalType": "uint256",
          "name": "pass",
          "type": "uint256"
        },
        {
          "internalType": "string",
          "name": "_nam",
          "type": "string"
        }
      ],
      "name": "login_invest",
      "outputs": [],
      "payable": false,
      "stateMutability": "nonpayable",
      "type": "function"
    },
    {
      "constant": false,
      "inputs": [
        {
          "internalType": "address",
          "name": "receiver",
          "type": "address"
        },
        {
          "internalType": "uint256",
          "name": "amount",
          "type": "uint256"
        },
        {
          "internalType": "uint256",
          "name": "opt",
          "type": "uint256"
        }
      ],
      "name": "transfer",
      "outputs": [],
      "payable": false,
      "stateMutability": "nonpayable",
      "type": "function"
    },
    {
      "constant": false,
      "inputs": [
        {
          "internalType": "string",
          "name": "_nam",
          "type": "string"
        }
      ],
      "name": "logout",
      "outputs": [],
      "payable": false,
      "stateMutability": "nonpayable",
      "type": "function"
    },
    {
      "constant": false,
      "inputs": [
        {
          "internalType": "string",
          "name": "_nam",
          "type": "string"
        }
      ],
      "name": "logoutin",
      "outputs": [],
      "payable": false,
      "stateMutability": "nonpayable",
      "type": "function"
    },
    {
      "constant": true,
      "inputs": [
        {
          "internalType": "uint256",
          "name": "i",
          "type": "uint256"
        }
      ],
      "name": "checkWinninProposalWithReturnValue",
      "outputs": [
        {
          "internalType": "bool",
          "name": "",
          "type": "bool"
        }
      ],
      "payable": false,
      "stateMutability": "view",
      "type": "function"
    },
    {
      "constant": false,
      "inputs": [
        {
          "internalType": "bool",
          "name": "_vote",
          "type": "bool"
        },
        {
          "internalType": "uint256",
          "name": "i",
          "type": "uint256"
        }
      ],
      "name": "voting",
      "outputs": [],
      "payable": true,
      "stateMutability": "payable",
      "type": "function"
    },
    {
      "constant": false,
      "inputs": [
        {
          "internalType": "string",
          "name": "_fileHash",
          "type": "string"
        },
        {
          "internalType": "uint256",
          "name": "_fileSize",
          "type": "uint256"
        },
        {
          "internalType": "string",
          "name": "_fileType",
          "type": "string"
        },
        {
          "internalType": "string",
          "name": "_fileName",
          "type": "string"
        },
        {
          "internalType": "uint256",
          "name": "_fileDescription",
          "type": "uint256"
        }
      ],
      "name": "uploadFile",
      "outputs": [],
      "payable": false,
      "stateMutability": "nonpayable",
      "type": "function"
    }
  ],
  "bytecode": "0x60806040526040518060400160405280600881526020017f4453746f7261676500000000000000000000000000000000000000000000000081525060009080519060200190620000519291906200019e565b506000600155607b600255600060035560646040519080825280602002602001820160405280156200009857816020015b6060815260200190600190039081620000825790505b5060069080519060200190620000b092919062000225565b506040518060400160405280600381526020017f77656c000000000000000000000000000000000000000000000000000000000081525060169080519060200190620000fe9291906200019e565b506064604051908082528060200260200182016040528015620001305781602001602082028038833980820191505090505b5060179080519060200190620001489291906200028c565b503480156200015657600080fd5b5033600760006101000a81548173ffffffffffffffffffffffffffffffffffffffff021916908373ffffffffffffffffffffffffffffffffffffffff16021790555062000498565b828054600181600116156101000203166002900490600052602060002090601f016020900481019282601f10620001e157805160ff191683800117855562000212565b8280016001018555821562000212579182015b8281111562000211578251825591602001919060010190620001f4565b5b50905062000221919062000339565b5090565b82805482825590600052602060002090810192821562000279579160200282015b82811115620002785782518290805190602001906200026792919062000361565b509160200191906001019062000246565b5b509050620002889190620003e8565b5090565b82805482825590600052602060002090601f01602090048101928215620003265791602002820160005b83821115620002f557835183826101000a81548160ff0219169083151502179055509260200192600101602081600001049283019260010302620002b6565b8015620003245782816101000a81549060ff0219169055600101602081600001049283019260010302620002f5565b505b50905062000335919062000419565b5090565b6200035e91905b808211156200035a57600081600090555060010162000340565b5090565b90565b828054600181600116156101000203166002900490600052602060002090601f016020900481019282601f10620003a457805160ff1916838001178555620003d5565b82800160010185558215620003d5579182015b82811115620003d4578251825591602001919060010190620003b7565b5b509050620003e4919062000339565b5090565b6200041691905b808211156200041257600081816200040891906200044c565b50600101620003ef565b5090565b90565b6200044991905b808211156200044557600081816101000a81549060ff02191690555060010162000420565b5090565b90565b50805460018160011615610100020316600290046000825580601f1062000474575062000495565b601f01602090049060005260206000209081019062000494919062000339565b5b50565b613b8580620004a86000396000f3fe6080604052600436106101cd5760003560e01c806366253f2e116100f7578063b5f30ee911610095578063e5981da711610064578063e5981da714611183578063e5b883ad146111e8578063ec86135614611213578063f4c714b414611278576101cd565b8063b5f30ee914610f10578063c0f2168614610f3b578063d9a9955414611005578063e0fdae08146110cf576101cd565b80638e4d78f6116100d15780638e4d78f614610da7578063942aeee714610de15780639788802f14610e46578063b186111514610eab576101cd565b806366253f2e14610ad35780638565416f14610cdd5780638ac634d214610d42576101cd565b80632441afce1161016f578063439535191161013e57806343953519146109165780634cbee8131461094157806358974bcf14610a095780635beb1ea414610a6e576101cd565b80632441afce1461072757806327e235e31461078c5780632c4f5a17146107f157806336078f06146108c3576101cd565b80630f1f0dd5116101ab5780630f1f0dd5146104d55780631a6f29a41461059d57806321ee307f146105f05780632263546d14610655576101cd565b806303cf79c4146101d257806306fdde03146103e0578063095bcdb614610470575b600080fd5b3480156101de57600080fd5b50610221600480360360208110156101f557600080fd5b81019080803573ffffffffffffffffffffffffffffffffffffffff169060200190929190505050611470565b604051808c8152602001806020018b815260200180602001806020018a815260200189815260200188151515158152602001878152602001861515151581526020018573ffffffffffffffffffffffffffffffffffffffff1673ffffffffffffffffffffffffffffffffffffffff16815260200184810384528e818151815260200191508051906020019080838360005b838110156102cd5780820151818401526020810190506102b2565b50505050905090810190601f1680156102fa5780820380516001836020036101000a031916815260200191505b5084810383528c818151815260200191508051906020019080838360005b83811015610333578082015181840152602081019050610318565b50505050905090810190601f1680156103605780820380516001836020036101000a031916815260200191505b5084810382528b818151815260200191508051906020019080838360005b8381101561039957808201518184015260208101905061037e565b50505050905090810190601f1680156103c65780820380516001836020036101000a031916815260200191505b509e50505050505050505050505050505060405180910390f35b3480156103ec57600080fd5b506103f56116cc565b6040518080602001828103825283818151815260200191508051906020019080838360005b8381101561043557808201518184015260208101905061041a565b50505050905090810190601f1680156104625780820380516001836020036101000a031916815260200191505b509250505060405180910390f35b34801561047c57600080fd5b506104d36004803603606081101561049357600080fd5b81019080803573ffffffffffffffffffffffffffffffffffffffff169060200190929190803590602001909291908035906020019092919050505061176a565b005b3480156104e157600080fd5b5061059b600480360360208110156104f857600080fd5b810190808035906020019064010000000081111561051557600080fd5b82018360208201111561052757600080fd5b8035906020019184600183028401116401000000008311171561054957600080fd5b91908080601f016020809104026020016040519081016040528093929190818152602001838380828437600081840152601f19601f8201169050808301925050505050505091929192905050506119b9565b005b3480156105a957600080fd5b506105d6600480360360208110156105c057600080fd5b8101908080359060200190929190505050611a01565b604051808215151515815260200191505060405180910390f35b3480156105fc57600080fd5b5061063f6004803603602081101561061357600080fd5b81019080803573ffffffffffffffffffffffffffffffffffffffff169060200190929190505050611a32565b6040518082815260200191505060405180910390f35b34801561066157600080fd5b506107256004803603604081101561067857600080fd5b81019080803590602001909291908035906020019064010000000081111561069f57600080fd5b8201836020820111156106b157600080fd5b803590602001918460018302840111640100000000831117156106d357600080fd5b91908080601f016020809104026020016040519081016040528093929190818152602001838380828437600081840152601f19601f820116905080830192505050505050509192919290505050611a4a565b005b34801561073357600080fd5b506107766004803603602081101561074a57600080fd5b81019080803573ffffffffffffffffffffffffffffffffffffffff1690602001909291905050506120f9565b6040518082815260200191505060405180910390f35b34801561079857600080fd5b506107db600480360360208110156107af57600080fd5b81019080803573ffffffffffffffffffffffffffffffffffffffff169060200190929190505050612111565b6040518082815260200191505060405180910390f35b3480156107fd57600080fd5b506108c16004803603604081101561081457600080fd5b81019080803590602001909291908035906020019064010000000081111561083b57600080fd5b82018360208201111561084d57600080fd5b8035906020019184600183028401116401000000008311171561086f57600080fd5b91908080601f016020809104026020016040519081016040528093929190818152602001838380828437600081840152601f19601f820116905080830192505050505050509192919290505050612129565b005b3480156108cf57600080fd5b506108fc600480360360208110156108e657600080fd5b8101908080359060200190929190505050612709565b604051808215151515815260200191505060405180910390f35b34801561092257600080fd5b5061092b612808565b6040518082815260200191505060405180910390f35b34801561094d57600080fd5b50610a076004803603602081101561096457600080fd5b810190808035906020019064010000000081111561098157600080fd5b82018360208201111561099357600080fd5b803590602001918460018302840111640100000000831117156109b557600080fd5b91908080601f016020809104026020016040519081016040528093929190818152602001838380828437600081840152601f19601f82011690508083019250505050505050919291929050505061280e565b005b348015610a1557600080fd5b50610a5860048036036020811015610a2c57600080fd5b81019080803573ffffffffffffffffffffffffffffffffffffffff169060200190929190505050612856565b6040518082815260200191505060405180910390f35b348015610a7a57600080fd5b50610abd60048036036020811015610a9157600080fd5b81019080803573ffffffffffffffffffffffffffffffffffffffff16906020019092919050505061286e565b6040518082815260200191505060405180910390f35b348015610adf57600080fd5b50610cdb600480360360a0811015610af657600080fd5b8101908080359060200190640100000000811115610b1357600080fd5b820183602082011115610b2557600080fd5b80359060200191846001830284011164010000000083111715610b4757600080fd5b91908080601f016020809104026020016040519081016040528093929190818152602001838380828437600081840152601f19601f8201169050808301925050505050505091929192908035906020019092919080359060200190640100000000811115610bb457600080fd5b820183602082011115610bc657600080fd5b80359060200191846001830284011164010000000083111715610be857600080fd5b91908080601f016020809104026020016040519081016040528093929190818152602001838380828437600081840152601f19601f82011690508083019250505050505050919291929080359060200190640100000000811115610c4b57600080fd5b820183602082011115610c5d57600080fd5b80359060200191846001830284011164010000000083111715610c7f57600080fd5b91908080601f016020809104026020016040519081016040528093929190818152602001838380828437600081840152601f19601f82011690508083019250505050505050919291929080359060200190929190505050612886565b005b348015610ce957600080fd5b50610d2c60048036036020811015610d0057600080fd5b81019080803573ffffffffffffffffffffffffffffffffffffffff169060200190929190505050613135565b6040518082815260200191505060405180910390f35b348015610d4e57600080fd5b50610d9160048036036020811015610d6557600080fd5b81019080803573ffffffffffffffffffffffffffffffffffffffff16906020019092919050505061314d565b6040518082815260200191505060405180910390f35b610ddf60048036036040811015610dbd57600080fd5b8101908080351515906020019092919080359060200190929190505050613165565b005b348015610ded57600080fd5b50610e3060048036036020811015610e0457600080fd5b81019080803573ffffffffffffffffffffffffffffffffffffffff169060200190929190505050613532565b6040518082815260200191505060405180910390f35b348015610e5257600080fd5b50610e9560048036036020811015610e6957600080fd5b81019080803573ffffffffffffffffffffffffffffffffffffffff16906020019092919050505061354a565b6040518082815260200191505060405180910390f35b348015610eb757600080fd5b50610efa60048036036020811015610ece57600080fd5b81019080803573ffffffffffffffffffffffffffffffffffffffff169060200190929190505050613562565b6040518082815260200191505060405180910390f35b348015610f1c57600080fd5b50610f2561357a565b6040518082815260200191505060405180910390f35b348015610f4757600080fd5b50610f8a60048036036020811015610f5e57600080fd5b81019080803573ffffffffffffffffffffffffffffffffffffffff169060200190929190505050613580565b6040518080602001828103825283818151815260200191508051906020019080838360005b83811015610fca578082015181840152602081019050610faf565b50505050905090810190601f168015610ff75780820380516001836020036101000a031916815260200191505b509250505060405180910390f35b34801561101157600080fd5b506110546004803603602081101561102857600080fd5b81019080803573ffffffffffffffffffffffffffffffffffffffff169060200190929190505050613630565b6040518080602001828103825283818151815260200191508051906020019080838360005b83811015611094578082015181840152602081019050611079565b50505050905090810190601f1680156110c15780820380516001836020036101000a031916815260200191505b509250505060405180910390f35b3480156110db57600080fd5b50611108600480360360208110156110f257600080fd5b81019080803590602001909291905050506136e0565b6040518080602001828103825283818151815260200191508051906020019080838360005b8381101561114857808201518184015260208101905061112d565b50505050905090810190601f1680156111755780820380516001836020036101000a031916815260200191505b509250505060405180910390f35b34801561118f57600080fd5b506111d2600480360360208110156111a657600080fd5b81019080803573ffffffffffffffffffffffffffffffffffffffff169060200190929190505050613799565b6040518082815260200191505060405180910390f35b3480156111f457600080fd5b506111fd6137b1565b6040518082815260200191505060405180910390f35b34801561121f57600080fd5b506112626004803603602081101561123657600080fd5b81019080803573ffffffffffffffffffffffffffffffffffffffff1690602001909291905050506137b7565b6040518082815260200191505060405180910390f35b34801561128457600080fd5b506112b16004803603602081101561129b57600080fd5b81019080803590602001909291905050506137cf565b604051808c8152602001806020018b815260200180602001806020018a815260200189815260200188151515158152602001878152602001861515151581526020018573ffffffffffffffffffffffffffffffffffffffff1673ffffffffffffffffffffffffffffffffffffffff16815260200184810384528e818151815260200191508051906020019080838360005b8381101561135d578082015181840152602081019050611342565b50505050905090810190601f16801561138a5780820380516001836020036101000a031916815260200191505b5084810383528c818151815260200191508051906020019080838360005b838110156113c35780820151818401526020810190506113a8565b50505050905090810190601f1680156113f05780820380516001836020036101000a031916815260200191505b5084810382528b818151815260200191508051906020019080838360005b8381101561142957808201518184015260208101905061140e565b50505050905090810190601f1680156114565780820380516001836020036101000a031916815260200191505b509e50505050505050505050505050505060405180910390f35b6005602052806000526040600020600091509050806000015490806001018054600181600116156101000203166002900480601f0160208091040260200160405190810160405280929190818152602001828054600181600116156101000203166002900480156115225780601f106114f757610100808354040283529160200191611522565b820191906000526020600020905b81548152906001019060200180831161150557829003601f168201915b505050505090806002015490806003018054600181600116156101000203166002900480601f0160208091040260200160405190810160405280929190818152602001828054600181600116156101000203166002900480156115c65780601f1061159b576101008083540402835291602001916115c6565b820191906000526020600020905b8154815290600101906020018083116115a957829003601f168201915b505050505090806004018054600181600116156101000203166002900480601f0160208091040260200160405190810160405280929190818152602001828054600181600116156101000203166002900480156116645780601f1061163957610100808354040283529160200191611664565b820191906000526020600020905b81548152906001019060200180831161164757829003601f168201915b5050505050908060050154908060060154908060070160009054906101000a900460ff16908060080154908060090160009054906101000a900460ff16908060090160019054906101000a900473ffffffffffffffffffffffffffffffffffffffff1690508b565b60008054600181600116156101000203166002900480601f0160208091040260200160405190810160405280929190818152602001828054600181600116156101000203166002900480156117625780601f1061173757610100808354040283529160200191611762565b820191906000526020600020905b81548152906001019060200180831161174557829003601f168201915b505050505081565b60018114156117fe576001600960003373ffffffffffffffffffffffffffffffffffffffff1673ffffffffffffffffffffffffffffffffffffffff1681526020019081526020016000205401600960003373ffffffffffffffffffffffffffffffffffffffff1673ffffffffffffffffffffffffffffffffffffffff1681526020019081526020016000208190555061191a565b6002811415611892576001600b60003373ffffffffffffffffffffffffffffffffffffffff1673ffffffffffffffffffffffffffffffffffffffff1681526020019081526020016000205401600b60003373ffffffffffffffffffffffffffffffffffffffff1673ffffffffffffffffffffffffffffffffffffffff16815260200190815260200160002081905550611919565b6001600a60003373ffffffffffffffffffffffffffffffffffffffff1673ffffffffffffffffffffffffffffffffffffffff1681526020019081526020016000205401600a60003373ffffffffffffffffffffffffffffffffffffffff1673ffffffffffffffffffffffffffffffffffffffff168152602001908152602001600020819055505b5b81600860008573ffffffffffffffffffffffffffffffffffffffff1673ffffffffffffffffffffffffffffffffffffffff1681526020019081526020016000206000828254039250508190555081600860003373ffffffffffffffffffffffffffffffffffffffff1673ffffffffffffffffffffffffffffffffffffffff16815260200190815260200160002060008282540192505081905550505050565b6000601160003373ffffffffffffffffffffffffffffffffffffffff1673ffffffffffffffffffffffffffffffffffffffff1681526020019081526020016000208190555050565b60178181548110611a0e57fe5b9060005260206000209060209182820401919006915054906101000a900460ff1681565b60116020528060005260406000206000915090505481565b60606040518060400160405280600581526020017f6f776e657200000000000000000000000000000000000000000000000000000081525090506060601560003373ffffffffffffffffffffffffffffffffffffffff1673ffffffffffffffffffffffffffffffffffffffff1681526020019081526020016000208054600181600116156101000203166002900480601f016020809104026020016040519081016040528092919081815260200182805460018160011615610100020316600290048015611b595780601f10611b2e57610100808354040283529160200191611b59565b820191906000526020600020905b815481529060010190602001808311611b3c57829003601f168201915b505050505090506001600f60003373ffffffffffffffffffffffffffffffffffffffff1673ffffffffffffffffffffffffffffffffffffffff168152602001908152602001600020541415611ea15783601360003373ffffffffffffffffffffffffffffffffffffffff1673ffffffffffffffffffffffffffffffffffffffff168152602001908152602001600020541415611e38576001601160003373ffffffffffffffffffffffffffffffffffffffff1673ffffffffffffffffffffffffffffffffffffffff168152602001908152602001600020819055506000600960003373ffffffffffffffffffffffffffffffffffffffff1673ffffffffffffffffffffffffffffffffffffffff168152602001908152602001600020819055506000600a60003373ffffffffffffffffffffffffffffffffffffffff1673ffffffffffffffffffffffffffffffffffffffff168152602001908152602001600020819055506000600b60003373ffffffffffffffffffffffffffffffffffffffff1673ffffffffffffffffffffffffffffffffffffffff16815260200190815260200160002081905550806040516020018082805190602001908083835b60208310611d3a5780518252602082019150602081019050602083039250611d17565b6001836020036101000a03801982511681845116808217855250505050505090500191505060405160208183030381529060405280519060200120826040516020018082805190602001908083835b60208310611dac5780518252602082019150602081019050602083039250611d89565b6001836020036101000a038019825116818451168082178552505050505050905001915050604051602081830303815290604052805190602001201415611e33576001601060003373ffffffffffffffffffffffffffffffffffffffff1673ffffffffffffffffffffffffffffffffffffffff168152602001908152602001600020819055505b611ea0565b7fad9eefc313550eb26658f0b86c43d562b31167aa21d08ad7c5989630d6f0cd1c33604051808273ffffffffffffffffffffffffffffffffffffffff1673ffffffffffffffffffffffffffffffffffffffff16815260200191505060405180910390a1600080fd5b5b83601360003373ffffffffffffffffffffffffffffffffffffffff1673ffffffffffffffffffffffffffffffffffffffff1681526020019081526020016000208190555082601560003373ffffffffffffffffffffffffffffffffffffffff1673ffffffffffffffffffffffffffffffffffffffff1681526020019081526020016000209080519060200190611f38929190613a2b565b50826040516020018082805190602001908083835b60208310611f705780518252602082019150602081019050602083039250611f4d565b6001836020036101000a03801982511681845116808217855250505050505090500191505060405160208183030381529060405280519060200120826040516020018082805190602001908083835b60208310611fe25780518252602082019150602081019050602083039250611fbf565b6001836020036101000a038019825116818451168082178552505050505050905001915050604051602081830303815290604052805190602001201415612069576001601060003373ffffffffffffffffffffffffffffffffffffffff1673ffffffffffffffffffffffffffffffffffffffff168152602001908152602001600020819055505b6001600f60003373ffffffffffffffffffffffffffffffffffffffff1673ffffffffffffffffffffffffffffffffffffffff168152602001908152602001600020819055506001601160003373ffffffffffffffffffffffffffffffffffffffff1673ffffffffffffffffffffffffffffffffffffffff1681526020019081526020016000208190555050505050565b600c6020528060005260406000206000915090505481565b60086020528060005260406000206000915090505481565b60606040518060400160405280600581526020017f6f776e657200000000000000000000000000000000000000000000000000000081525090506060601460003373ffffffffffffffffffffffffffffffffffffffff1673ffffffffffffffffffffffffffffffffffffffff1681526020019081526020016000208054600181600116156101000203166002900480601f0160208091040260200160405190810160405280929190818152602001828054600181600116156101000203166002900480156122385780601f1061220d57610100808354040283529160200191612238565b820191906000526020600020905b81548152906001019060200180831161221b57829003601f168201915b505050505090506001600c60003373ffffffffffffffffffffffffffffffffffffffff1673ffffffffffffffffffffffffffffffffffffffff1681526020019081526020016000205414156124b15783601260003373ffffffffffffffffffffffffffffffffffffffff1673ffffffffffffffffffffffffffffffffffffffff168152602001908152602001600020541415612448576001600e60003373ffffffffffffffffffffffffffffffffffffffff1673ffffffffffffffffffffffffffffffffffffffff16815260200190815260200160002081905550806040516020018082805190602001908083835b6020831061234a5780518252602082019150602081019050602083039250612327565b6001836020036101000a03801982511681845116808217855250505050505090500191505060405160208183030381529060405280519060200120826040516020018082805190602001908083835b602083106123bc5780518252602082019150602081019050602083039250612399565b6001836020036101000a038019825116818451168082178552505050505050905001915050604051602081830303815290604052805190602001201415612443576001600d60003373ffffffffffffffffffffffffffffffffffffffff1673ffffffffffffffffffffffffffffffffffffffff168152602001908152602001600020819055505b6124b0565b7fad9eefc313550eb26658f0b86c43d562b31167aa21d08ad7c5989630d6f0cd1c33604051808273ffffffffffffffffffffffffffffffffffffffff1673ffffffffffffffffffffffffffffffffffffffff16815260200191505060405180910390a1600080fd5b5b83601260003373ffffffffffffffffffffffffffffffffffffffff1673ffffffffffffffffffffffffffffffffffffffff1681526020019081526020016000208190555082601460003373ffffffffffffffffffffffffffffffffffffffff1673ffffffffffffffffffffffffffffffffffffffff1681526020019081526020016000209080519060200190612548929190613a2b565b50826040516020018082805190602001908083835b60208310612580578051825260208201915060208101905060208303925061255d565b6001836020036101000a03801982511681845116808217855250505050505090500191505060405160208183030381529060405280519060200120826040516020018082805190602001908083835b602083106125f257805182526020820191506020810190506020830392506125cf565b6001836020036101000a038019825116818451168082178552505050505050905001915050604051602081830303815290604052805190602001201415612679576001600d60003373ffffffffffffffffffffffffffffffffffffffff1673ffffffffffffffffffffffffffffffffffffffff168152602001908152602001600020819055505b6001600c60003373ffffffffffffffffffffffffffffffffffffffff1673ffffffffffffffffffffffffffffffffffffffff168152602001908152602001600020819055506001600e60003373ffffffffffffffffffffffffffffffffffffffff1673ffffffffffffffffffffffffffffffffffffffff1681526020019081526020016000208190555050505050565b60008060006004600085815260200190815260200160002060090160009054906101000a900460ff16905060006004600086815260200190815260200160002060070160009054906101000a900460ff16905060006017868154811061276b57fe5b90600052602060002090602091828204019190069054906101000a900460ff16905060006004600088815260200190815260200160002060080154905060038114156127f6576001151584151514156127ec576001151583151514156127e2576001151582151514156127dd57600194505b6127e7565b600094505b6127f1565b600094505b6127fb565b600080fd5b8495505050505050919050565b60035481565b6000600e60003373ffffffffffffffffffffffffffffffffffffffff1673ffffffffffffffffffffffffffffffffffffffff1681526020019081526020016000208190555050565b60136020528060005260406000206000915090505481565b60126020528060005260406000206000915090505481565b6000600190505b6003548111612ab0576060600682815481106128a557fe5b906000526020600020018054600181600116156101000203166002900480601f0160208091040260200160405190810160405280929190818152602001828054600181600116156101000203166002900480156129435780601f1061291857610100808354040283529160200191612943565b820191906000526020600020905b81548152906001019060200180831161292657829003601f168201915b50505050509050806040516020018082805190602001908083835b60208310612981578051825260208201915060208101905060208303925061295e565b6001836020036101000a03801982511681845116808217855250505050505090500191505060405160208183030381529060405280519060200120876040516020018082805190602001908083835b602083106129f357805182526020820191506020810190506020830392506129d0565b6001836020036101000a038019825116818451168082178552505050505050905001915050604051602081830303815290604052805190602001201415612aa2576040517f08c379a000000000000000000000000000000000000000000000000000000000815260040180806020018281038252600f8152602001807f436f70797269676874206973737565000000000000000000000000000000000081525060200191505060405180910390fd5b50808060010191505061288d565b506001600e60003373ffffffffffffffffffffffffffffffffffffffff1673ffffffffffffffffffffffffffffffffffffffff1681526020019081526020016000205414612afd57600080fd5b6000855111612b0b57600080fd5b6000835111612b1957600080fd5b6000825111612b2757600080fd5b600073ffffffffffffffffffffffffffffffffffffffff163373ffffffffffffffffffffffffffffffffffffffff161415612b6157600080fd5b60008411612b6e57600080fd5b80600860003373ffffffffffffffffffffffffffffffffffffffff1673ffffffffffffffffffffffffffffffffffffffff16815260200190815260200160002081905550600080905060008090506000809050600080905060036000815480929190600101919050555060405180610160016040528060035481526020018a8152602001898152602001888152602001878152602001868152602001428152602001841515815260200185815260200183151581526020013373ffffffffffffffffffffffffffffffffffffffff16815250600460006003548152602001908152602001600020600082015181600001556020820151816001019080519060200190612c7b929190613aab565b50604082015181600201556060820151816003019080519060200190612ca2929190613aab565b506080820151816004019080519060200190612cbf929190613aab565b5060a0820151816005015560c0820151816006015560e08201518160070160006101000a81548160ff02191690831515021790555061010082015181600801556101208201518160090160006101000a81548160ff0219169083151502179055506101408201518160090160016101000a81548173ffffffffffffffffffffffffffffffffffffffff021916908373ffffffffffffffffffffffffffffffffffffffff16021790555090505088600660035481548110612d7b57fe5b906000526020600020019080519060200190612d98929190613a2b565b5060405180610160016040528060035481526020018a8152602001898152602001888152602001878152602001868152602001428152602001841515815260200185815260200183151581526020013373ffffffffffffffffffffffffffffffffffffffff16815250600560003373ffffffffffffffffffffffffffffffffffffffff1673ffffffffffffffffffffffffffffffffffffffff168152602001908152602001600020600082015181600001556020820151816001019080519060200190612e66929190613aab565b50604082015181600201556060820151816003019080519060200190612e8d929190613aab565b506080820151816004019080519060200190612eaa929190613aab565b5060a0820151816005015560c0820151816006015560e08201518160070160006101000a81548160ff02191690831515021790555061010082015181600801556101208201518160090160006101000a81548160ff0219169083151502179055506101408201518160090160016101000a81548173ffffffffffffffffffffffffffffffffffffffff021916908373ffffffffffffffffffffffffffffffffffffffff1602179055509050507fd682c398c32a1dab709f59f3a841c21e8ae2ebe6bf2d0647e65a9a030471c59b6003548a8a8a8a8a428b33604051808a81526020018060200189815260200180602001806020018881526020018781526020018681526020018573ffffffffffffffffffffffffffffffffffffffff1673ffffffffffffffffffffffffffffffffffffffff16815260200184810384528c818151815260200191508051906020019080838360005b8381101561301a578082015181840152602081019050612fff565b50505050905090810190601f1680156130475780820380516001836020036101000a031916815260200191505b5084810383528a818151815260200191508051906020019080838360005b83811015613080578082015181840152602081019050613065565b50505050905090810190601f1680156130ad5780820380516001836020036101000a031916815260200191505b50848103825289818151815260200191508051906020019080838360005b838110156130e65780820151818401526020810190506130cb565b50505050905090810190601f1680156131135780820380516001836020036101000a031916815260200191505b509c5050505050505050505050505060405180910390a1505050505050505050565b600f6020528060005260406000206000915090505481565b60096020528060005260406000206000915090505481565b60606040518060400160405280600581526020017f6f776e657200000000000000000000000000000000000000000000000000000081525090506060601460003373ffffffffffffffffffffffffffffffffffffffff1673ffffffffffffffffffffffffffffffffffffffff1681526020019081526020016000208054600181600116156101000203166002900480601f0160208091040260200160405190810160405280929190818152602001828054600181600116156101000203166002900480156132745780601f1061324957610100808354040283529160200191613274565b820191906000526020600020905b81548152906001019060200180831161325757829003601f168201915b50505050509050806040516020018082805190602001908083835b602083106132b2578051825260208201915060208101905060208303925061328f565b6001836020036101000a03801982511681845116808217855250505050505090500191505060405160208183030381529060405280519060200120826040516020018082805190602001908083835b602083106133245780518252602082019150602081019050602083039250613301565b6001836020036101000a03801982511681845116808217855250505050505090500191505060405160208183030381529060405280519060200120146133d2576040517f08c379a00000000000000000000000000000000000000000000000000000000081526004018080602001828103825260148152602001807f6e6f7420656c696769626c6520746f20766f746500000000000000000000000081525060200191505060405180910390fd5b60006004600085815260200190815260200160002060080154141561344057836004600085815260200190815260200160002060090160006101000a81548160ff0219169083151502179055506001600460008581526020019081526020016000206008018190555061352c565b6001600460008581526020019081526020016000206008015414156134ae57836004600085815260200190815260200160002060070160006101000a81548160ff0219169083151502179055506002600460008581526020019081526020016000206008018190555061352b565b6002600460008581526020019081526020016000206008015414156135255783601784815481106134db57fe5b90600052602060002090602091828204019190066101000a81548160ff0219169083151502179055506003600460008581526020019081526020016000206008018190555061352a565b600080fd5b5b5b50505050565b60106020528060005260406000206000915090505481565b600e6020528060005260406000206000915090505481565b600b6020528060005260406000206000915090505481565b60025481565b60146020528060005260406000206000915090508054600181600116156101000203166002900480601f0160208091040260200160405190810160405280929190818152602001828054600181600116156101000203166002900480156136285780601f106135fd57610100808354040283529160200191613628565b820191906000526020600020905b81548152906001019060200180831161360b57829003601f168201915b505050505081565b60156020528060005260406000206000915090508054600181600116156101000203166002900480601f0160208091040260200160405190810160405280929190818152602001828054600181600116156101000203166002900480156136d85780601f106136ad576101008083540402835291602001916136d8565b820191906000526020600020905b8154815290600101906020018083116136bb57829003601f168201915b505050505081565b600681815481106136ed57fe5b906000526020600020016000915090508054600181600116156101000203166002900480601f0160208091040260200160405190810160405280929190818152602001828054600181600116156101000203166002900480156137915780601f1061376657610100808354040283529160200191613791565b820191906000526020600020905b81548152906001019060200180831161377457829003601f168201915b505050505081565b600a6020528060005260406000206000915090505481565b60015481565b600d6020528060005260406000206000915090505481565b6004602052806000526040600020600091509050806000015490806001018054600181600116156101000203166002900480601f0160208091040260200160405190810160405280929190818152602001828054600181600116156101000203166002900480156138815780601f1061385657610100808354040283529160200191613881565b820191906000526020600020905b81548152906001019060200180831161386457829003601f168201915b505050505090806002015490806003018054600181600116156101000203166002900480601f0160208091040260200160405190810160405280929190818152602001828054600181600116156101000203166002900480156139255780601f106138fa57610100808354040283529160200191613925565b820191906000526020600020905b81548152906001019060200180831161390857829003601f168201915b505050505090806004018054600181600116156101000203166002900480601f0160208091040260200160405190810160405280929190818152602001828054600181600116156101000203166002900480156139c35780601f10613998576101008083540402835291602001916139c3565b820191906000526020600020905b8154815290600101906020018083116139a657829003601f168201915b5050505050908060050154908060060154908060070160009054906101000a900460ff16908060080154908060090160009054906101000a900460ff16908060090160019054906101000a900473ffffffffffffffffffffffffffffffffffffffff1690508b565b828054600181600116156101000203166002900490600052602060002090601f016020900481019282601f10613a6c57805160ff1916838001178555613a9a565b82800160010185558215613a9a579182015b82811115613a99578251825591602001919060010190613a7e565b5b509050613aa79190613b2b565b5090565b828054600181600116156101000203166002900490600052602060002090601f016020900481019282601f10613aec57805160ff1916838001178555613b1a565b82800160010185558215613b1a579182015b82811115613b19578251825591602001919060010190613afe565b5b509050613b279190613b2b565b5090565b613b4d91905b80821115613b49576000816000905550600101613b31565b5090565b9056fea265627a7a723158204b25e62f93398291cc53995f555b29ce4e8cce848255d400d99e22f5c354f2c764736f6c63430005100032",
  "source": "pragma solidity >=0.4.21 <0.6.0;\n\ncontract DStorage {\n  string public name = 'DStorage';\n  uint public fileCoun = 0;\n  uint public psw = 123;\n  uint public fileCount = 0;\n  mapping(uint => File) public files;\n  mapping(address => File) public filess;\n  string[] public hashArray = new string[](100);\n  address owner;\n   mapping (address => uint) public balances;\n    mapping (address => uint) public lowrisk;\n     mapping (address => uint) public highrisk;\n      mapping (address => uint) public mediumrisk;\n   mapping (address => uint) public occ;\n    mapping (address => uint) public fun;\n    mapping (address => uint) public all;\n     mapping (address => uint) public occi;\n    mapping (address => uint) public funi;\n    mapping (address => uint) public alli;\n     mapping (address => uint) public password;\n      mapping (address => uint) public passwordi;\n     //remove public if you donot want password.\n     mapping (address => string) public name1;\n      mapping (address => string) public name1i;\n    string wel =\"wel\";\n    bool[] public votingsss = new bool[](100);\n    event Sent(address from);\n\n  struct File {\n    uint fileId;\n    string fileHash;\n    uint fileSize;\n    string fileType;\n    string fileName;\n    uint fileDescription;\n    uint uploadTime;\n    bool t;\n    uint voted;\n    bool vote;\n    \n\n    \n   address payable uploader;\n  }\n\n  event FileUploaded(\n    uint fileId,\n    string fileHash,\n    uint fileSize,\n    string fileType,\n    string fileName, \n    uint fileDescription,\n    uint uploadTime,\n    uint voted,\n    address payable uploader\n  );\n\n  constructor() public {\n      owner =msg.sender;\n      //occ[msg.sender] = 1;\n       // password[msg.sender]= 123;\n         //name1[msg.sender]= 'owner';\n         //all[msg.sender] = 1;\n  }\n  \n    function login(uint pass, string memory _nam )  public{\n       string memory _z = 'owner' ;\nstring memory _y = name1[msg.sender];\n        if (occ[msg.sender] == 1)\n        {\n            \n            if (password[msg.sender] == pass)\n            { \n              all[msg.sender] = 1;\n              \n               if (keccak256(abi. encodePacked(_z)) == keccak256(abi. encodePacked(_y))) \n                 {\n                   fun[msg.sender] = 1;\n                }\n\n\n            }\n            else{\n                emit Sent(msg.sender);\n                revert();\n            }\n        \n        }\n        \n        password[msg.sender]=pass;\n        name1[msg.sender]= _nam;\n         if (keccak256(abi. encodePacked(_z)) == keccak256(abi. encodePacked(_nam))) \n                 {\n                   fun[msg.sender] = 1;\n                }\n        occ[msg.sender] = 1;\n        all[msg.sender] = 1;\n        // microbal[msg.sender]=10000;\n      \n        \n         }\n\n function login_invest(uint pass, string memory _nam )  public{\n       string memory _z = 'owner' ;\nstring memory _y = name1i[msg.sender];\n        if (occi[msg.sender] == 1)\n        {\n            \n            if (passwordi[msg.sender] == pass)\n            { \n              alli[msg.sender] = 1;\n             lowrisk[msg.sender]=0;\n             highrisk[msg.sender]=0;\n             mediumrisk[msg.sender]=0;\n\n               if (keccak256(abi. encodePacked(_z)) == keccak256(abi. encodePacked(_y))) \n                 {\n                   funi[msg.sender] = 1;\n                }\n\n\n            }\n            else{\n                emit Sent(msg.sender);\n                revert();\n            }\n        \n        }\n        \n        passwordi[msg.sender]=pass;\n        name1i[msg.sender]= _nam;\n         if (keccak256(abi. encodePacked(_z)) == keccak256(abi. encodePacked(_nam))) \n                 {\n                   funi[msg.sender] = 1;\n                }\n        occi[msg.sender] = 1;\n        alli[msg.sender] = 1;\n        \n        \n         }\n         \n  function transfer(address receiver, uint amount,uint opt) public {\n        if(opt==1)\n      { \n           lowrisk[msg.sender]=lowrisk[msg.sender]+1;\n      }\n      else if(opt==2)\n      {\n            mediumrisk[msg.sender]=mediumrisk[msg.sender]+1;\n      } \n      else\n      {\n            highrisk[msg.sender]=highrisk[msg.sender]+1;\n      }\n        balances[receiver] -= amount;\n        balances[msg.sender] += amount;\n       \n    }\n   \n\n\n\n  function logout(string memory _nam)  public{\n        \n        \n        \n        all[msg.sender] = 0;\n        \n         }\n\n   \n         function logoutin(string memory _nam)  public{\n        \n        \n        \n          alli[msg.sender] = 0;\n        \n         }\n\n        \n\n\n       function checkWinninProposalWithReturnValue (uint i) public view returns (bool) {\n           bool winner;\n           bool f=files[i].vote;\n           bool s=files[i].t;\n           bool e=votingsss[i];\n           uint v =files[i].voted;\n        if( v== 3)\n        {\n            if(f== true)\n             {\n                if(s==true)\n                 {\n                   if(e==true)\n                   { \n                     winner = true;\n                   }\n                   \n                  }\n                  else\n                  {\n                    winner = false;  \n                  }\n                \n                }\n            else \n            {\n               winner = false;   \n            }\n        }\n        else {\n            \n            revert();\n        }\n        return winner;\n    }          \n \nfunction voting( bool _vote,uint i) public payable {\n     \nstring memory _z = 'owner' ;\nstring memory _y = name1[msg.sender];\n\n     \n       \n           require (keccak256(abi. encodePacked(_z)) == keccak256(abi. encodePacked(_y)) , \"not eligible to vote\") ;      \n      if(files[i].voted==0)\n      {\n          files[i].vote=_vote;\n          files[i].voted=1;\n      }\n      else if(files[i].voted==1)\n      {\n          files[i].t=_vote;\n          files[i].voted=2;\n      }\n       else if(files[i].voted==2)\n      {\n          votingsss[i]=_vote;\n          files[i].voted=3;\n      }\n      else\n      {\n          revert();\n      }\n      \n    \n\n    \n    \n}\n  function uploadFile(string memory _fileHash, uint _fileSize, string memory _fileType, string memory _fileName, uint _fileDescription) public {\n    // string memory _ab = \"Qmep96bgCmHYLbg3mDjkmXy2ioovZhf4AsQsS9XhrZ4TVM\";\n\n    // require (keccak256(abi. encodePacked(_fileHash)) != keccak256(abi. encodePacked(_ab)) ) ;\n    // // Make sure the file hash exists\n\n    for(uint i=1; i<=fileCount; i++){\n      string memory _ab = hashArray[i];\n      require (keccak256(abi. encodePacked(_fileHash)) != keccak256(abi. encodePacked(_ab)) , \"Copyright issue\") ;\n      \n    }\nrequire(all[msg.sender] == 1);\n    require(bytes(_fileHash).length > 0);\n    // Make sure file type exists\n    require(bytes(_fileType).length > 0);\n    // Make sure file description exists\n   // require(bytes(_fileDescription).length > 0);\n    // Make sure file fileName exists\n    require(bytes(_fileName).length > 0);\n    // Make sure uploader address exists\n    require(msg.sender!=address(0));\n    // Make sure file size is more than 0\n    require(_fileSize>0);\n  // bool te = false;\n  balances[msg.sender]=_fileDescription;\n    uint voteds = 0;\n    bool t = false;\n    bool vote = false;\n    bool votes = false;\n    // Increment file id\n    fileCount ++;\n\n    // Add File to the contract\n    files[fileCount] = File(fileCount, _fileHash, _fileSize, _fileType, _fileName, _fileDescription, block.timestamp,t,voteds,vote, msg.sender);\n    hashArray[fileCount]=_fileHash;\n    filess[msg.sender] = File(fileCount, _fileHash, _fileSize, _fileType, _fileName, _fileDescription, block.timestamp,t,voteds,vote, msg.sender);\n    // Trigger an event\n    emit FileUploaded(fileCount, _fileHash, _fileSize, _fileType, _fileName, _fileDescription, block.timestamp,voteds, msg.sender);\n  }\n}",
  "sourcePath": "/Users/carolmendonca/Desktop/website/src/contracts/Dstorage.sol",
  "compiler": {
    "name": "solc",
    "version": "0.5.16+commit.9c3226ce.Emscripten.clang"
  },
  "schemaVersion": "3.4.3",
  "updatedAt": "2021-10-15T13:04:54.463Z",
  "networkType": "ethereum",
  "devdoc": {
    "methods": {}
  },
  "userdoc": {
    "methods": {}
  }
}